{
  "contractName": "TicTacToe",
  "abi": [
    {
      "constant": true,
      "inputs": [],
      "name": "player2",
      "outputs": [
        {
          "name": "",
          "type": "address"
        }
      ],
      "payable": false,
      "stateMutability": "view",
      "type": "function"
    },
    {
      "constant": true,
      "inputs": [
        {
          "name": "",
          "type": "uint256"
        },
        {
          "name": "",
          "type": "uint256"
        }
      ],
      "name": "board",
      "outputs": [
        {
          "name": "",
          "type": "uint8"
        }
      ],
      "payable": false,
      "stateMutability": "view",
      "type": "function"
    },
    {
      "constant": true,
      "inputs": [],
      "name": "activeUser",
      "outputs": [
        {
          "name": "",
          "type": "address"
        }
      ],
      "payable": false,
      "stateMutability": "view",
      "type": "function"
    },
    {
      "constant": true,
      "inputs": [],
      "name": "isReady",
      "outputs": [
        {
          "name": "",
          "type": "bool"
        }
      ],
      "payable": false,
      "stateMutability": "view",
      "type": "function"
    },
    {
      "constant": true,
      "inputs": [],
      "name": "player1",
      "outputs": [
        {
          "name": "",
          "type": "address"
        }
      ],
      "payable": false,
      "stateMutability": "view",
      "type": "function"
    },
    {
      "constant": true,
      "inputs": [],
      "name": "winner",
      "outputs": [
        {
          "name": "",
          "type": "int8"
        }
      ],
      "payable": false,
      "stateMutability": "view",
      "type": "function"
    },
    {
      "inputs": [],
      "payable": false,
      "stateMutability": "nonpayable",
      "type": "constructor"
    },
    {
      "constant": false,
      "inputs": [],
      "name": "setUser",
      "outputs": [],
      "payable": false,
      "stateMutability": "nonpayable",
      "type": "function"
    },
    {
      "constant": false,
      "inputs": [
        {
          "name": "col",
          "type": "uint8"
        },
        {
          "name": "row",
          "type": "uint8"
        }
      ],
      "name": "drow",
      "outputs": [],
      "payable": false,
      "stateMutability": "nonpayable",
      "type": "function"
    }
  ],
  "bytecode": "0x60806040527fffffffffffffffffffffffffffffffffffffffffffffffffffffffffffffffff600460006101000a81548160ff021916908360000b60ff1602179055503480156200004f57600080fd5b506001600060016101000a81548160ff02191690831515021790555060008060006101000a81548160ff021916908360ff1602179055506200009f620000a5640100000000026401000000009004565b62000449565b6003604051908082528060200260200182016040528015620000dc57816020015b6060815260200190600190039081620000c65790505b5060039080519060200190620000f4929190620001d0565b5060008090505b60038160ff161015620001cd57606060036040519080825280602002602001820160405280156200013b5781602001602082028038833980820191505090505b50905060008090505b60038160ff16101562000189576000828260ff168151811015156200016557fe5b9060200190602002019060ff16908160ff1681525050808060010191505062000144565b508060038360ff168154811015156200019e57fe5b906000526020600020019080519060200190620001bd92919062000237565b50508080600101915050620000fb565b50565b82805482825590600052602060002090810192821562000224579160200282015b828111156200022357825182908051906020019062000212929190620002e5565b5091602001919060010190620001f1565b5b50905062000233919062000393565b5090565b82805482825590600052602060002090601f01602090048101928215620002d25791602002820160005b83821115620002a157835183826101000a81548160ff021916908360ff160217905550926020019260010160208160000104928301926001030262000261565b8015620002d05782816101000a81549060ff0219169055600101602081600001049283019260010302620002a1565b505b509050620002e19190620003c4565b5090565b82805482825590600052602060002090601f01602090048101928215620003805791602002820160005b838211156200034f57835183826101000a81548160ff021916908360ff16021790555092602001926001016020816000010492830192600103026200030f565b80156200037e5782816101000a81549060ff02191690556001016020816000010492830192600103026200034f565b505b5090506200038f9190620003c4565b5090565b620003c191905b80821115620003bd5760008181620003b39190620003f7565b506001016200039a565b5090565b90565b620003f491905b80821115620003f057600081816101000a81549060ff021916905550600101620003cb565b5090565b90565b50805460008255601f0160209004906000526020600020908101906200041e919062000421565b50565b6200044691905b808211156200044257600081600090555060010162000428565b5090565b90565b6116cb80620004596000396000f3fe60806040526004361061008e576000357c0100000000000000000000000000000000000000000000000000000000900463ffffffff1680630fa33d131461009357806359a5f12d146100aa5780638086a92a146101015780639573111214610160578063a094a031146101b7578063c36c4eea146101e6578063d30895e414610231578063dfbf53ae14610288575b600080fd5b34801561009f57600080fd5b506100a86102b9565b005b3480156100b657600080fd5b506100bf6105bd565b604051808273ffffffffffffffffffffffffffffffffffffffff1673ffffffffffffffffffffffffffffffffffffffff16815260200191505060405180910390f35b34801561010d57600080fd5b506101446004803603604081101561012457600080fd5b8101908080359060200190929190803590602001909291905050506105e3565b604051808260ff1660ff16815260200191505060405180910390f35b34801561016c57600080fd5b50610175610630565b604051808273ffffffffffffffffffffffffffffffffffffffff1673ffffffffffffffffffffffffffffffffffffffff16815260200191505060405180910390f35b3480156101c357600080fd5b506101cc610656565b604051808215151515815260200191505060405180910390f35b3480156101f257600080fd5b5061022f6004803603604081101561020957600080fd5b81019080803560ff169060200190929190803560ff169060200190929190505050610669565b005b34801561023d57600080fd5b506102466109ba565b604051808273ffffffffffffffffffffffffffffffffffffffff1673ffffffffffffffffffffffffffffffffffffffff16815260200191505060405180910390f35b34801561029457600080fd5b5061029d6109e0565b604051808260000b60000b815260200191505060405180910390f35b600073ffffffffffffffffffffffffffffffffffffffff16600160009054906101000a900473ffffffffffffffffffffffffffffffffffffffff1673ffffffffffffffffffffffffffffffffffffffff1614806103645750600073ffffffffffffffffffffffffffffffffffffffff16600260009054906101000a900473ffffffffffffffffffffffffffffffffffffffff1673ffffffffffffffffffffffffffffffffffffffff16145b151561036f57600080fd5b600073ffffffffffffffffffffffffffffffffffffffff16600160009054906101000a900473ffffffffffffffffffffffffffffffffffffffff1673ffffffffffffffffffffffffffffffffffffffff16141561040c5733600160006101000a81548173ffffffffffffffffffffffffffffffffffffffff021916908373ffffffffffffffffffffffffffffffffffffffff1602179055506105bb565b600073ffffffffffffffffffffffffffffffffffffffff16600260009054906101000a900473ffffffffffffffffffffffffffffffffffffffff1673ffffffffffffffffffffffffffffffffffffffff1614156105ba5733600260006101000a81548173ffffffffffffffffffffffffffffffffffffffff021916908373ffffffffffffffffffffffffffffffffffffffff160217905550600260009054906101000a900473ffffffffffffffffffffffffffffffffffffffff16600060026101000a81548173ffffffffffffffffffffffffffffffffffffffff021916908373ffffffffffffffffffffffffffffffffffffffff16021790555060008060016101000a81548160ff02191690831515021790555060008090505b60028160ff1610156105b85760008090505b60028160ff1610156105aa57600060038360ff1681548110151561055957fe5b906000526020600020018260ff1681548110151561057357fe5b90600052602060002090602091828204019190066101000a81548160ff021916908360ff1602179055508080600101915050610539565b508080600101915050610527565b505b5b565b600260009054906101000a900473ffffffffffffffffffffffffffffffffffffffff1681565b6003828154811015156105f257fe5b906000526020600020018181548110151561060957fe5b9060005260206000209060209182820401919006915091509054906101000a900460ff1681565b600060029054906101000a900473ffffffffffffffffffffffffffffffffffffffff1681565b600060019054906101000a900460ff1681565b600060029054906101000a900473ffffffffffffffffffffffffffffffffffffffff1673ffffffffffffffffffffffffffffffffffffffff163373ffffffffffffffffffffffffffffffffffffffff161415156106c557600080fd5b60038160ff161080156106db575060038260ff16105b15156106e657600080fd5b600060038360ff168154811015156106fa57fe5b906000526020600020018260ff1681548110151561071457fe5b90600052602060002090602091828204019190069054906101000a900460ff1660ff1614151561074357600080fd5b60016000809054906101000a900460ff16016000806101000a81548160ff021916908360ff160217905550600160009054906101000a900473ffffffffffffffffffffffffffffffffffffffff1673ffffffffffffffffffffffffffffffffffffffff163373ffffffffffffffffffffffffffffffffffffffff16141561088457600160038360ff168154811015156107d857fe5b906000526020600020018260ff168154811015156107f257fe5b90600052602060002090602091828204019190066101000a81548160ff021916908360ff160217905550600260009054906101000a900473ffffffffffffffffffffffffffffffffffffffff16600060026101000a81548173ffffffffffffffffffffffffffffffffffffffff021916908373ffffffffffffffffffffffffffffffffffffffff160217905550610997565b600260009054906101000a900473ffffffffffffffffffffffffffffffffffffffff1673ffffffffffffffffffffffffffffffffffffffff163373ffffffffffffffffffffffffffffffffffffffff16141561099657600260038360ff168154811015156108ee57fe5b906000526020600020018260ff1681548110151561090857fe5b90600052602060002090602091828204019190066101000a81548160ff021916908360ff160217905550600160009054906101000a900473ffffffffffffffffffffffffffffffffffffffff16600060026101000a81548173ffffffffffffffffffffffffffffffffffffffff021916908373ffffffffffffffffffffffffffffffffffffffff1602179055505b5b61099f6109f3565b15156109b6576109ad610a9f565b6109b56115e3565b5b5050565b600160009054906101000a900473ffffffffffffffffffffffffffffffffffffffff1681565b600460009054906101000a900460000b81565b600080600090505b60028160ff161015610a965760008090505b60028160ff161015610a8857600060038360ff16815481101515610a2d57fe5b906000526020600020018260ff16815481101515610a4757fe5b90600052602060002090602091828204019190069054906101000a900460ff1660ff161415610a7b57600192505050610a9c565b8080600101915050610a0d565b5080806001019150506109fb565b50600090505b90565b60036000815481101515610aaf57fe5b906000526020600020016001815481101515610ac757fe5b90600052602060002090602091828204019190069054906101000a900460ff1660ff1660036001815481101515610afa57fe5b906000526020600020016001815481101515610b1257fe5b90600052602060002090602091828204019190069054906101000a900460ff1660ff16148015610bd5575060036002815481101515610b4d57fe5b906000526020600020016001815481101515610b6557fe5b90600052602060002090602091828204019190069054906101000a900460ff1660ff1660036001815481101515610b9857fe5b906000526020600020016001815481101515610bb057fe5b90600052602060002090602091828204019190069054906101000a900460ff1660ff16145b80610d12575060036000815481101515610beb57fe5b906000526020600020016000815481101515610c0357fe5b90600052602060002090602091828204019190069054906101000a900460ff1660ff1660036001815481101515610c3657fe5b906000526020600020016001815481101515610c4e57fe5b90600052602060002090602091828204019190069054906101000a900460ff1660ff16148015610d11575060036002815481101515610c8957fe5b906000526020600020016002815481101515610ca157fe5b90600052602060002090602091828204019190069054906101000a900460ff1660ff1660036001815481101515610cd457fe5b906000526020600020016001815481101515610cec57fe5b90600052602060002090602091828204019190069054906101000a900460ff1660ff16145b5b80610e4f575060036000815481101515610d2857fe5b906000526020600020016002815481101515610d4057fe5b90600052602060002090602091828204019190069054906101000a900460ff1660ff1660036001815481101515610d7357fe5b906000526020600020016001815481101515610d8b57fe5b90600052602060002090602091828204019190069054906101000a900460ff1660ff16148015610e4e575060036002815481101515610dc657fe5b906000526020600020016000815481101515610dde57fe5b90600052602060002090602091828204019190069054906101000a900460ff1660ff1660036001815481101515610e1157fe5b906000526020600020016001815481101515610e2957fe5b90600052602060002090602091828204019190069054906101000a900460ff1660ff16145b5b80610f8c575060036001815481101515610e6557fe5b906000526020600020016000815481101515610e7d57fe5b90600052602060002090602091828204019190069054906101000a900460ff1660ff1660036001815481101515610eb057fe5b906000526020600020016001815481101515610ec857fe5b90600052602060002090602091828204019190069054906101000a900460ff1660ff16148015610f8b575060036001815481101515610f0357fe5b906000526020600020016002815481101515610f1b57fe5b90600052602060002090602091828204019190069054906101000a900460ff1660ff1660036001815481101515610f4e57fe5b906000526020600020016001815481101515610f6657fe5b90600052602060002090602091828204019190069054906101000a900460ff1660ff16145b5b15610ffb5760036001815481101515610fa157fe5b906000526020600020016001815481101515610fb957fe5b90600052602060002090602091828204019190069054906101000a900460ff16600460006101000a81548160ff021916908360000b60ff1602179055506115e1565b6003600081548110151561100b57fe5b90600052602060002001600081548110151561102357fe5b90600052602060002090602091828204019190069054906101000a900460ff1660ff166003600081548110151561105657fe5b90600052602060002001600181548110151561106e57fe5b90600052602060002090602091828204019190069054906101000a900460ff1660ff161480156111315750600360008154811015156110a957fe5b9060005260206000200160028154811015156110c157fe5b90600052602060002090602091828204019190069054906101000a900460ff1660ff16600360008154811015156110f457fe5b90600052602060002001600181548110151561110c57fe5b90600052602060002090602091828204019190069054906101000a900460ff1660ff16145b8061126e57506003600081548110151561114757fe5b90600052602060002001600081548110151561115f57fe5b90600052602060002090602091828204019190069054906101000a900460ff1660ff166003600181548110151561119257fe5b9060005260206000200160008154811015156111aa57fe5b90600052602060002090602091828204019190069054906101000a900460ff1660ff1614801561126d5750600360028154811015156111e557fe5b9060005260206000200160008154811015156111fd57fe5b90600052602060002090602091828204019190069054906101000a900460ff1660ff166003600181548110151561123057fe5b90600052602060002001600081548110151561124857fe5b90600052602060002090602091828204019190069054906101000a900460ff1660ff16145b5b156112dd576003600081548110151561128357fe5b90600052602060002001600081548110151561129b57fe5b90600052602060002090602091828204019190069054906101000a900460ff16600460006101000a81548160ff021916908360000b60ff1602179055506115e0565b600360028154811015156112ed57fe5b90600052602060002001600081548110151561130557fe5b90600052602060002090602091828204019190069054906101000a900460ff1660ff166003600281548110151561133857fe5b90600052602060002001600181548110151561135057fe5b90600052602060002090602091828204019190069054906101000a900460ff1660ff1614801561141357506003600281548110151561138b57fe5b9060005260206000200160028154811015156113a357fe5b90600052602060002090602091828204019190069054906101000a900460ff1660ff16600360028154811015156113d657fe5b9060005260206000200160018154811015156113ee57fe5b90600052602060002090602091828204019190069054906101000a900460ff1660ff16145b8061155057506003600081548110151561142957fe5b90600052602060002001600281548110151561144157fe5b90600052602060002090602091828204019190069054906101000a900460ff1660ff166003600181548110151561147457fe5b90600052602060002001600281548110151561148c57fe5b90600052602060002090602091828204019190069054906101000a900460ff1660ff1614801561154f5750600360028154811015156114c757fe5b9060005260206000200160028154811015156114df57fe5b90600052602060002090602091828204019190069054906101000a900460ff1660ff166003600181548110151561151257fe5b90600052602060002001600281548110151561152a57fe5b90600052602060002090602091828204019190069054906101000a900460ff1660ff16145b5b156115bf576003600281548110151561156557fe5b90600052602060002001600281548110151561157d57fe5b90600052602060002090602091828204019190069054906101000a900460ff16600460006101000a81548160ff021916908360000b60ff1602179055506115df565b6000600460006101000a81548160ff021916908360000b60ff1602179055505b5b5b565b6000600160006101000a81548173ffffffffffffffffffffffffffffffffffffffff021916908373ffffffffffffffffffffffffffffffffffffffff1602179055506000600260006101000a81548173ffffffffffffffffffffffffffffffffffffffff021916908373ffffffffffffffffffffffffffffffffffffffff1602179055506001600060016101000a81548160ff02191690831515021790555060008060006101000a81548160ff021916908360ff16021790555056fea165627a7a72305820e7a93995f064ab40b48e5ec65a21f05bc7853a9350eceb360f2a9c7a218cf1c20029",
  "source": "pragma solidity 0.5.0;\n\n\ncontract TicTacToe\n{\n   uint8 stepCounter ;\n   bool public  isReady;\n   address public activeUser;\n   address public player1; // 1 = o\n   address public player2; // 2 = x\n   uint8[][] public board;\n   int8 public winner = -1;\n\n   constructor() public {\n         isReady = true;\n         stepCounter = 0;\n         initArray();\n   }\n\n   modifier onlyActiveUser() {\n       require( msg.sender == activeUser );\n       _;\n   }\n\n   function initArray() internal  {\n       board = new uint8[][](3);\n       for (uint8 i=0; i < 3; i++) {\n           uint8[] memory temp = new uint8[](3);\n           for(uint8 j = 0; j < 3; j++){\n                   temp[j]=0;\n               }\n           board[i] = temp;\n       }\n   }\n\n   function setUser() public{\n\n       require(\n           player1 == address(0) ||\n           player2 == address(0)\n       );\n\n       if(player1 == address(0) ){\n           player1 = msg.sender;\n       }else if(player2 == address(0)){\n           player2 = msg.sender;\n           activeUser = player2;\n           isReady = false;\n           for(uint8 i = 0; i < 2; i++ ){\n               for(uint8 j = 0; j < 2; j++ ){\n                   board[i][j] = 0;\n               }\n           }\n       }\n\n   }\n   function drow(uint8 col, uint8 row) onlyActiveUser  public {\n       require( row < 3  && col < 3 );\n       require( board[col][row] == 0 );\n       stepCounter = stepCounter + 1;\n\n       if(msg.sender == player1 ){\n           board[col][row] = 1;\n           activeUser = player2;\n\n       }else if(msg.sender == player2) {\n            board[col][row] = 2;\n            activeUser = player1;\n       }\n\n       if(!checkBoard() ){\n           checkWinner();\n           reset();\n       }\n   }\n\n   function reset() internal{\n       player1 = address(0);\n       player2 = address(0);\n       isReady = true;\n       stepCounter = 0;\n\n   }\n   function checkWinner() internal{\n\n   //[(0,0),(0,1),(0,2)]\n   //[(1,0),(1,1),(1,2)]\n   //[(2,0),(2,1),(2,2)]\n           if(\n               board[1][1] ==  board[0][1]  &&  board[1][1] ==  board[2][1] ||\n               board[1][1] ==  board[0][0]  &&  board[1][1] ==  board[2][2] ||\n               board[1][1] ==  board[0][2]  &&  board[1][1] ==  board[2][0] ||\n               board[1][1] ==  board[1][0]  &&  board[1][1] ==  board[1][2] )\n               {\n               winner =  int8(board[1][1]);\n            }else if(\n                board[0][1] ==  board[0][0]  &&  board[0][1] ==  board[0][2] ||\n                board[1][0] ==  board[0][0]  &&  board[1][0] ==  board[2][0]\n                ){\n                 winner =  int8(board[0][0]);\n            }else if(\n               board[2][1] ==  board[2][0]  &&  board[2][1] ==  board[2][2] ||\n               board[1][2] ==  board[0][2]  &&  board[1][2] ==  board[2][2]){\n                    winner =  int8(board[2][2]);\n            }else{\n                winner = 0;\n            }\n\n\n\n   }\n\n   function checkBoard() internal view returns(bool){\n\n       for(uint8 i = 0; i < 2; i++ ){\n           for(uint8 j = 0; j < 2; j++ ){\n              if( board[i][j] == 0) {\n                  return true;\n              }\n           }\n       }\n\n       return false;\n   }\n\n}",
  "sourcePath": "/Users/giser/develop/BA/tictctoe truffle tests/contracts/TicTacToe.sol",
  "compiler": {
    "name": "solc",
    "version": "0.5.0+commit.1d4f565a.Emscripten.clang"
  },
  "schemaVersion": "3.0.1",
  "updatedAt": "2019-01-23T05:33:19.600Z",
  "devdoc": {
    "methods": {}
  },
  "userdoc": {
    "methods": {}
  }
}